:040000000C946300F9
:100004000C9400000C9400000C9400000C9400006C
:100014000C9400000C9400000C9400000C9400005C
:100024000C9400000C9400000C9400000C9400004C
:100034000C9400000C9400000C9400000C9400003C
:100044000C9400000C9400000C9400000C9400002C
:100054000C9400000C9400000C9400000C9400001C
:100064000C9400001027E80364000A00010000104B
:1000740000011000010056454849434C45004D4FCE
:100084004E49544F52494E4700566F6C7461676530
:100094003A0056454849434C452053544152540074
:1000A40080C0080000037A000B00080382000900E6
:1000B40013038D000E001C03960002002A03A40003
:1000C4000000F894EE27EFBBF1E0F5BFE5BF8DE04B
:1000D400A2E0BB27ED938A95E9F780E098E0A0E0E1
:1000E400B1E0ED930197E9F7E6EAF0E085919591A7
:1000F400009761F0A591B59105901590BF01F001AD
:1001040005900D920197E1F7FB01F0CFE0E0EEBB23
:10011400EFEFEDBFE8E0EEBFC0E0D3E00C94E90000
:10012400AA93E881E0937C008BE18A95F1F7E09152
:100134007A00E064E0937A00E0917A00E071E1F300
:10014400E0917A00E061E0937A00E0917800F09128
:1001540079006DC1BA93AA9321970E947402AF816A
:10016400B885EAE0F0E00E943D028F01AF81B885D6
:10017400EAE0F0E00E9455023E2FD801EAE0F0E008
:100184000E9455022E2FD801EAE0F0E00E943D02C1
:100194005E2FA52FBB27EAE0F0E00E9458024E2F05
:1001A400A52FB0E0EAE0F0E00E945002EE83AE81B9
:1001B400A05DEAD0A42FA05DE7D0A22FA05DE4D07B
:1001C400A32FA05DE1D00E947B0229960895E0E868
:1001D400E0936100E0E0E0936100E4B9E5B9E7B9D8
:1001E400E8B9E4E0EAB9E6E0EBB9E0E0E4BDE5BD96
:1001F400E6BDE7BDE8BDE0938000E0938100E093B5
:100204008500E0938400E0938700E0938600E09308
:100214008900E0938800E0938B00E0938A00E093E8
:10022400B600E093B000E093B100E093B200E09335
:10023400B300E093B400E0936E00E0936F00E093AA
:100244007000E0936900EDBBE0936800E093C000A8
:10025400E8E1E093C100E6E0E093C200E0E0E0936F
:10026400C500E3E3E093C400E0E8E0BFE0E0E0932E
:100274007F00E0937E00E0937C00E3E8E0937A0063
:10028400E0E0E0937B00ECBDE093BC005A98A0E171
:10029400A1D0E0E0EA93A0E05ED0A0E0B3E089D092
:1002A400E0E0EA93A1E057D0A8E0B3E00E941B028B
:1002B4005FD0A5E035DFDF01E5E5F0E00E943D0217
:1002C4003E2E4F2EE0E0EA93A1E045D0A3E1B3E057
:1002D40070D0A32DB42D3EDF5A984C9B09C05A9A76
:1002E400E0E0EA93A0E037D0ACE1B3E00E941B0267
:1002F400E0CFFFCFAA93E881E07111F05D9A01C0CD
:100304005D98E881E07211F05E9A01C05E98E88120
:10031400E07411F05F9A01C05F98E881E07811F011
:10032400289A01C028988DE08A95F1F7429A8DE0C9
:100334008A95F1F742988DE08A95F1F778C0AA93EF
:10034400A881D8DFE881E295E883A881D3DF85E836
:100354008A95F1F76CC0AA93E881F0E0E65DFC4F62
:10036400E081A981AE0FEBDF898078802296089521
:10037400A2E00E942102ACE0E2DFA1E00E9421029F
:10038400E0E07E2E8E2E0895AA93A881AA3011F063
:100394008A1448F0E0E0EA937394A72DDCDFA88187
:1003A400AA3009F444C08394409AA881C8DF4098D5
:1003B4003EC0BA93AA931A93A981BA81ED91A983F5
:1003C400BA831E2FE03019F0A12FDEDFF5CF18819C
:1003D40023960895AA93559A569A579A209A3A9A28
:1003E400389A399A429840984198A880E881E05810
:1003F400E0932C03E881E054E0932D03A4E1B0E002
:100404000E942F020E9427020E9427020E942702B4
:10041400A0E270DF88EC90E00197F1F7A8E28FDFAB
:10042400A4E08DDFA5E88BDFA6E089DFA1DF2196BC
:1004340008950E94DB01A0EDB7E00C942F020E9406
:10044400A101A3E0B0E00C942F02A0E30E947C0180
:1004540088EC90E00197F1F70895109639F080ED5B
:1004640097E00197F1F7A8951197C9F70895F195C9
:10047400E195F04008950024112490E1AA0FBB1FD8
:10048400001C111C0E1A1F0A18F40E0E1F1E01C0A8
:10049400A1609A9599F7FD01D001089515D0EBDF7D
:1004A4000EF4E5DF0895E7DFFD010895E894B7FF52
:1004B40004C0A095B09511966894F7FDD8DFDBDFF2
:1004C400FD010EF4D4DF0895E894F7FF02C0CFDFF6
:1004D4006894B7FF06C0A095B095119600F80394F0
:1004E40000FA08955A934A933A932A931A930A93D3
:1004F40008955D814C813B812A8119810881089589
:00000001FF
